:100000000C9463000C948B000C948B000C948B006C
:100010000C948B000C948B000C948B000C94EC02D1
:100020000C948B000C948B000C948B000C948B0024
:100030000C948B000C948B000C948B000C948B0014
:100040000C94A0030C948B000C946E030C94480346
:100050000C948B000C948B000C948B000C948B00F4
:100060000C948B000C948B000000000024002700EF
:100070002A0000000008000201000003040700003D
:1000800000000000000000000000230026002900FE
:10009000010204081020408001020408102001021F
:1000A0000408102000000000250028002B00040494
:1000B0000404040404040202020202020303030310
:1000C000030302005C0811241FBECFEFD8E0DEBF9F
:1000D000CDBF11E0A0E0B1E0ECEBF6E102C005908D
:1000E0000D92A436B107D9F722E0A4E6B1E001C031
:1000F0001D92AF31B207E1F710E0C3E6D0E004C0D3
:100100002197FE010E94470BC236D107C9F70E9412
:100110002F040C945C0B0C940000AF92BF92CF9212
:10012000DF92EF92FF920F931F93CF93DF936C01B7
:100130007B018B01040F151FEB015E01AE18BF0898
:10014000C017D10759F06991D601ED91FC9101904A
:10015000F081E02DC6010995892B79F7C501DF9162
:10016000CF911F910F91FF90EF90DF90CF90BF90B4
:10017000AF900895FC01538D448D252F30E0842FDE
:1001800090E0821B930B541710F0CF9608950197BF
:100190000895FC01918D828D981761F0A28DAE0FAC
:1001A000BF2FB11D5D968C91928D9F5F9F73928F33
:1001B00090E008958FEF9FEF0895FC01918D828D5F
:1001C000981731F0828DE80FF11D858D90E008952C
:1001D0008FEF9FEF0895FC01918D228D892F90E084
:1001E000805C9F4F821B91098F739927089582E845
:1001F00091E00E94EB0021E0892B09F420E0822F9E
:10020000089580E090E0892B29F00E94F700811189
:100210000C9400000895FC01A48DA80FB92FB11D06
:10022000A35ABF4F2C91848D90E001968F7399272C
:10023000848FA689B7892C93A089B1898C9183700A
:1002400080648C93938D848D981306C00288F38903
:10025000E02D80818F7D80830895EF92FF920F9330
:100260001F93CF93DF93EC0181E0888F9B8D8C8D62
:1002700098131AC0E889F989808185FF15C09FB756
:10028000F894EE89FF896083E889F9898081837019
:10029000806480839FBF81E090E0DF91CF911F91C8
:1002A0000F91FF90EF900895F62E0B8D10E00F5FE9
:1002B0001F4F0F731127E02E8C8D8E110CC00FB6BF
:1002C00007FCFACFE889F989808185FFF5CFCE0157
:1002D0000E940B01F1CFEB8DEC0FFD2FF11DE35AC6
:1002E000FF4FF0829FB7F8940B8FEA89FB898081DA
:1002F0008062CFCFCF93DF93EC01888D8823B9F054
:10030000AA89BB89E889F9898C9185FD03C0808120
:1003100086FD0DC00FB607FCF7CF8C9185FFF2CF9D
:10032000808185FFEDCFCE010E940B01E9CFDF91E7
:10033000CF91089590E0FC01EE58FF4F2491FC010D
:10034000E057FF4F3491FC01E255FF4FE491EE235B
:10035000C9F0222339F0233001F1A8F4213019F13A
:10036000223029F1F0E0EE0FFF1FEC55FF4FA59171
:10037000B4918FB7F894EC91611126C030953E236B
:100380003C938FBF08952730A9F02830C9F024305E
:1003900049F7809180008F7D03C0809180008F7726
:1003A00080938000DFCF84B58F7784BDDBCF84B5A9
:1003B0008F7DFBCF8091B0008F778093B000D2CF3C
:1003C0008091B0008F7DF9CF3E2BDACF9091000164
:1003D00089130BC0E2ECF0E0E4919FEF90930001F1
:1003E000E13049F028F0E23061F060E00C949A01CD
:1003F00010926E00FACF90916F009D7F90936F00E6
:10040000F4CF909170009D7F9093700091E0909355
:10041000B0009091B100987F94609093B1001092D9
:10042000B300E3CFCF93DF9390E0FC01E057FF4FA1
:10043000249182559F4FFC0184918823D1F090E054
:10044000880F991FFC01E859FF4FA591B491FC0159
:10045000EC55FF4FC591D49161110EC09FB7F89430
:100460008C91E22FE0958E238C932881E223E88300
:100470009FBFDF91CF9108958FB7F894EC91E22B55
:10048000EC938FBFF6CF3FB7F894809169019091BC
:100490006A01A0916B01B0916C0126B5A89B05C0C3
:1004A0002F3F19F00196A11DB11D3FBFBA2FA92FF3
:1004B000982F8827BC01CD01620F711D811D911DF0
:1004C00042E0660F771F881F991F4A95D1F708955C
:1004D0008F929F92AF92BF92CF92DF92EF92FF9254
:1004E0006B017C010E9443024B015C01C114D104E9
:1004F000E104F104B9F00E944302681979098A09FC
:100500009B09683E73408105910580F321E0C21A82
:10051000D108E108F10888EE880E83E0981EA11C3E
:10052000B11CE4CFFF90EF90DF90CF90BF90AF90E1
:100530009F908F900895FC0101900020E9F731977A
:10054000AF01481B590BBC0182E891E00C948D006F
:100550008F929F92AF92BF920F931F93CF93DF938F
:10056000CDB7DEB7A1970FB6F894DEBF0FBECDBFF3
:1005700019A2423008F44AE08E010F5D1F4F842E0D
:10058000912CB12CA12CA50194010E94E00AE62F28
:10059000B901CA01EA30F4F4E05DD801EE938D01AF
:1005A000232B242B252B79F790E080E0109719F06E
:1005B000CD010E949B02A1960FB6F894DEBF0FBE3C
:1005C000CDBFDF91CF911F910F91BF90AF909F90C2
:1005D0008F900895E95CE1CF1F920F920FB60F92B2
:1005E00011242F933F934F935F936F937F938F9338
:1005F0009F93AF93BF93EF93FF938091720190917C
:100600007301A0917401B0917501892B8A2B8B2BFA
:10061000D1F190916D01E0916E01F0916F018081B7
:10062000892780838091720190917301A091740158
:10063000B0917501181619061A061B069CF48091D4
:10064000720190917301A0917401B09175010197AD
:10065000A109B1098093720190937301A093740171
:10066000B0937501FF91EF91BF91AF919F918F91E1
:100670007F916F915F914F913F912F910F900FBE9E
:100680000F901F901895809100010E94E601EACF1B
:100690001F920F920FB60F9211242F933F934F93F7
:1006A0005F936F937F938F939F93AF93BF93EF93DA
:1006B000FF9382E891E00E940B01FF91EF91BF91BF
:1006C000AF919F918F917F916F915F914F913F91EA
:1006D0002F910F900FBE0F901F9018951F920F92A1
:1006E0000FB60F9211242F938F939F93EF93FF9345
:1006F000E0919201F09193018081E0919801F09155
:10070000990182FD1BC0908180919B018F5F8F7347
:1007100020919C01821741F0E0919B01F0E0EE579F
:10072000FE4F958F80939B01FF91EF919F918F9149
:100730002F910F900FBE0F901F9018958081F4CFCE
:100740001F920F920FB60F9211242F933F938F9306
:100750009F93AF93BF938091650190916601A091A3
:100760006701B09168013091640123E0230F2D37B8
:1007700058F50196A11DB11D209364018093650178
:1007800090936601A0936701B0936801809169011D
:1007900090916A01A0916B01B0916C010196A11D2D
:1007A000B11D8093690190936A01A0936B01B0938E
:1007B0006C01BF91AF919F918F913F912F910F90BD
:1007C0000FBE0F901F90189526E8230F0296A11DCB
:1007D000B11DD2CFCF92DF92EF92FF920F931F9372
:1007E000E82FF92F05C0015011092109310961F1E4
:1007F000908196239417B9F305C00150110921097E
:10080000310911F1908196239413F7CFC12CD12C8B
:10081000E12CF12C0AC08FEFC81AD80AE80AF80AAE
:100820000C151D052E053F0579F080818623841760
:1008300091F36C2D7D2D8E2D9F2D1F910F91FF908B
:10084000EF90DF90CF90089560E070E080E090E05E
:100850001F910F91FF90EF90DF90CF900895CF936D
:10086000DF93CDB7DEB729970FB6F894DEBF0FBE82
:10087000CDBF789484B5826084BD84B5816084BD29
:1008800085B5826085BD85B5816085BD80916E002E
:10089000816080936E00109281008091810082605F
:1008A000809381008091810081608093810080919C
:1008B00080008160809380008091B100846080938B
:1008C000B1008091B00081608093B00080917A0087
:1008D000846080937A0080917A00826080937A00AD
:1008E00080917A00816080937A0080917A0080689C
:1008F00080937A001092C100E0919201F0919301EF
:1009000082E08083E0918E01F0918F011082E0916E
:100910009001F09191018FEC808310929A01E09107
:100920009601F091970186E08083E0919401F09127
:100930009501808180618083E0919401F09195011F
:10094000808188608083E0919401F091950180819D
:1009500080688083E0919401F091950180818F7D82
:10096000808361E084E00E94120261E082E00E94E4
:10097000120260E083E00E94120260E082E00E94C6
:100980009A0161E082E00E949A0183E290E001977F
:10099000F1F760E082E00E949A01E3E9F0E06491FF
:1009A000E1EBF0E0E491F0E0EE0FFF1FEA57FF4FBC
:1009B0008591949100E412E42FE030E0462F0E94EC
:1009C000EA03611571058105910509F4CAC09B010F
:1009D000AC012F5F3F4F4F4F5F4F5F70293A81E669
:1009E00038074105510508F4BFC083E391E00E9438
:1009F0009B0286E491E00E949B0260ED77E080E03C
:100A000090E00E94680220E030E040E450E4609111
:100A10007E0170917F0180918001909181010E94FF
:100A2000F60887FFF1C2E3E2F1E0FA83E98323E10C
:100A300031E038872F83E981FA8161917191FA83DE
:100A4000E98388EE93E00E94CC0A8B012B01770F9B
:100A500066087708EF81F88521903190F887EF8359
:100A600080910001883009F044C1E2ECF0E0F4919B
:100A7000F987F7FD29C261E088E00E941202F9853A
:100A8000FF2321F02985223009F054C24101B12C05
:100A9000A12C60E072E18AE790E0A50191010E943B
:100AA000020B2B833C834D835E8369017A0131E025
:100AB000C31AD108E108F1088FEFC816D104E10488
:100AC000F10409F00CF4D8C160E472E48FE090E026
:100AD000A50191010E94020B69017A0191E0C91AF6
:100AE000D108E108F108E985E23009F079C182E036
:100AF000FFEFCF16D104E104F10409F00CF4D5C2E4
:100B000060E970ED83E090E0A50191010E94020B85
:100B100069017A0181E0C81AD108E108F10883E08F
:100B20009FEFC916D104E104F10409F00CF4BDC231
:100B300068E478EE81E090E0A50191010E94020B4B
:100B400069017A0181E0C81AD108E108F1089FEF34
:100B5000C916D104E104F10411F00CF065C184E080
:100B6000A4C220E030E0A901559547953795279517
:100B7000A4E5B1E00E94280B0E94A50920E030E422
:100B80004CE156E40E94FB0860937E0170937F0164
:100B9000809380019093810189E491E00E949B02FF
:100BA000C0907E01D0907F01E0908001F0908101A3
:100BB000A7019601C701B6010E94C70A882339F030
:100BC00084E591E00E949B0280E691E010CF46010F
:100BD0005701E894B7F82FEF3FEF4FE75FE7C50104
:100BE000B4010E94C70A81110DC02FEF3FEF4FE7FC
:100BF0005FE7C501B4010E94F60818161CF488E5E9
:100C000091E0E0CF2FEF3FEF4FE75FE4C701B60180
:100C10000E94550A18161CF48CE591E0D3CF2FEFF3
:100C20003FEF4FE75FECC701B6010E94F60887FD72
:100C3000F3CF20E030E0A901C701B6010E94F60819
:100C400087FF09C06DE282E891E00E942D01F7FA6A
:100C5000F094F7F8F0942AE037ED43EA5BE3C7013C
:100C6000B6010E948A084B015C010E9474096B0165
:100C70007C010E94A3099B01AC01C501B4010E9443
:100C800089084B015C014AE0C701B6010E94A80235
:100C90006EE282E891E00E942D0120E030E040E227
:100CA00051E4C501B4010E945A0A4B015C010E9443
:100CB00074096B01F12CE12C4AE0C701B6010E94D6
:100CC000A802C701B6010E94A3099B01AC01C5019E
:100CD000B4010E94890820E030E040E251E40E9423
:100CE0005A0A0E94740990E080E04AE00E94A8023B
:100CF0006BCF8F3F09F0E8C088E080930001E2EC01
:100D0000F0E0F491F987FF3F09F4DEC0F13031F1F2
:100D100058F0F23009F441C0398537FDD5C061E0A3
:100D200088E00E941202AECE14BC15BC84B582606D
:100D300084BD85B5816085BDE6EBF0E08491E82F48
:100D4000F0E0EE0FFF1FEC55FF4F85919491E8E91D
:100D5000F0E084918093710119868DCE109280000D
:100D60001092810080918100886080938100809141
:100D70008100816080938100E6EBF0E08491E82FB0
:100D8000F0E0EE0FFF1FEC55FF4F85919491E8E9DD
:100D9000F0E08491809370016ECE1092B0001092BA
:100DA000B1008091B00082608093B0008091B1006A
:100DB00081608093B100E6EBF0E08491E82FF0E0F1
:100DC000EE0FFF1FEC55FF4F8591949190936F01AB
:100DD00080936E01E8E9F0E0849180936D014BCE41
:100DE000EFEFCE16D104E104F10409F00CF4A0C039
:100DF00068E478EE81E090E0A50191010E94020B89
:100E000069017A01F1E0CF1AD108E108F1082985DA
:100E1000222309F416C1FFEFCF16D104E104F10437
:100E200009F00CF49CCE16C164E274EF80E090E00F
:100E3000A50194010E94020B69017A0181E0C81AA0
:100E4000D108E108F10885E09FEFC916D104E1045B
:100E5000F10409F008F429C162E17AE780E090E04A
:100E6000A50194010E94020B69017A0181E0C81A70
:100E7000D108E108F10800C181E02985211115C1DF
:100E800095B5987F892B85BD2FEF3FEFA9014114C0
:100E900051046104710409F077C08985813009F437
:100EA00091C0823009F4A0C081110EC0C7BC20934C
:100EB0007A0130937B0140937C0150937D018091B6
:100EC0006E00826080936E00C301B2010E94A5098A
:100ED00026E636E646EA5FE30E945A0A0E946D095A
:100EE000072E000C880B990B0E94680288E00E9474
:100EF000E601E3E3F1E029813A81E217F30709F023
:100F00009ACD61E084E00E949A0168EE73E080E08F
:100F100090E00E94680280E090E0892B09F431CDD6
:100F20000E94F700882309F42CCD0E94000029CDEF
:100F300082E0A3CFB12CA12C60E072E18AE790E0BF
:100F4000A50191010E94020B69017A0181E0C81A92
:100F5000D108E108F108C114D10491E0E906F104D7
:100F600004F591E0F985F13009F08ECF8091810090
:100F7000887F892B809381002FEF3FEFA9014114D7
:100F8000510461047104F1F09101220F331FD80163
:100F90000E94210B28EE33E040E050E00E94E00A7E
:100FA0007CCF68E478EE81E090E0A50191010E9499
:100FB000020B69017A01E1E0CE1AD108E108F108DB
:100FC00093E0D0CFD0928900C09288002093760120
:100FD00030937701409378015093790180916F00AD
:100FE000826080936F0070CFC092B3002093720133
:100FF0003093730140937401509375018091700098
:1010000082608093700060CF60E07CCF84E0FFEF6F
:10101000CF16D104E104F10409F008F431CFCB80FC
:10102000DC80ED80FE808AE0F594E794D794C79445
:101030008A95D1F7E1E0CE1AD108E108F10885E000
:101040001FCF83E0EFEFCE16D104E104F10409F0E5
:101050000CF416CF62E17AE780E090E0A5019401FC
:101060000E94020B69017A01E1E0CE1AD108E10881
:10107000F108F985FF2351F286E09FEFC916D104EC
:10108000E104F10491F088F0CB80DC80ED80FE80FB
:101090009AE0F594E794D794C7949A95D1F781E0B4
:1010A000C81AD108E108F10887E09091B100987F53
:1010B000892B8093B100E8CEE2E8F1E0138212823E
:1010C00088EE93E0A0E0B0E084839583A683B783A5
:1010D00085E091E09183808385EC90E0958784871B
:1010E00084EC90E09787868780EC90E0918B808BF2
:1010F00081EC90E0938B828B82EC90E0958B848BDB
:1011000086EC90E0978B868B118E128E138E148E48
:1011100008955058BB27AA270E94A1080C941B0AC7
:101120000E940D0A38F00E94140A20F039F49F3F03
:1011300019F426F40C940A0A0EF4E095E7FB0C94DB
:10114000040AE92F0E942C0A58F3BA1762077307A2
:101150008407950720F079F4A6F50C944E0A0EF456
:10116000E0950B2EBA2FA02D0B01B90190010C01B7
:10117000CA01A0011124FF27591B99F0593F50F4CF
:10118000503E68F11A16F040A22F232F342F442727
:10119000585FF3CF469537952795A795F04053951F
:1011A000C9F77EF41F16BA0B620B730B840BBAF0EF
:1011B0009150A1F0FF0FBB1F661F771F881FC2F75A
:1011C0000EC0BA0F621F731F841F48F4879577956E
:1011D0006795B795F7959E3F08F0B0CF9395880F28
:1011E00008F09927EE0F9795879508950E94E009DA
:1011F00008F481E008950E940F090C941B0A0E94D4
:10120000140A58F00E940D0A40F029F45F3F29F0BB
:101210000C94040A51110C944F0A0C940A0A0E946F
:101220002C0A68F39923B1F3552391F3951B550BC1
:10123000BB27AA2762177307840738F09F5F5F4FA9
:10124000220F331F441FAA1FA9F335D00E2E3AF0E8
:10125000E0E832D091505040E695001CCAF72BD000
:10126000FE2F29D0660F771F881FBB1F2617370751
:101270004807AB07B0E809F0BB0B802DBF01FF2783
:1012800093585F4F3AF09E3F510578F00C94040A52
:101290000C944F0A5F3FE4F3983ED4F3869577951C
:1012A0006795B795F7959F5FC9F7880F911D96953C
:1012B000879597F90895E1E0660F771F881FBB1F98
:1012C000621773078407BA0720F0621B730B840B45
:1012D000BA0BEE1F88F7E09508950E947409689490
:1012E000B1110C944F0A08950E94340A88F09F5758
:1012F00098F0B92F9927B751B0F0E1F0660F771F3A
:10130000881F991F1AF0BA95C9F714C0B13091F02F
:101310000E944E0AB1E008950C944E0A672F782F70
:101320008827B85F39F0B93FCCF3869577956795F4
:10133000B395D9F73EF490958095709561957F4F60
:101340008F4F9F4F0895E89409C097FB3EF4909506
:101350008095709561957F4F8F4F9F4F9923A9F08E
:10136000F92F96E9BB279395F6958795779567951D
:10137000B795F111F8CFFAF4BB0F11F460FF1BC061
:101380006F5F7F4F8F4F9F4F16C0882311F096E9F4
:1013900011C0772321F09EE8872F762F05C06623A2
:1013A00071F096E8862F70E060E02AF09A95660F5B
:1013B000771F881FDAF7880F9695879597F9089514
:1013C000990F0008550FAA0BE0E8FEEF1616170656
:1013D000E807F907C0F012161306E407F50798F0BE
:1013E000621B730B840B950B39F40A2661F0232BD7
:1013F000242B252B21F408950A2609F4A140A69553
:101400008FEF811D811D089597F99F6780E870E037
:1014100060E008959FEF80EC089500240A9416166A
:10142000170618060906089500240A9412161306D2
:10143000140605060895092E0394000C11F4882360
:1014400052F0BB0F40F4BF2B11F460FF04C06F5F7C
:101450007F4F8F4F9F4F089557FD9058440F551F52
:1014600059F05F3F71F04795880F97FB991F61F026
:101470009F3F79F087950895121613061406551F9D
:10148000F2CF4695F1DF08C0161617061806991F09
:10149000F1CF86957105610508940895E894BB27FE
:1014A00066277727CB0197F908950E94E00908F491
:1014B0008FEF08950E946D0A0C941B0A0E940D0A7A
:1014C00038F00E94140A20F0952311F00C94040ABD
:1014D0000C940A0A11240C944F0A0E942C0A70F3EF
:1014E000959FC1F3950F50E0551F629FF001729FC9
:1014F000BB27F00DB11D639FAA27F00DB11DAA1FD8
:10150000649F6627B00DA11D661F829F2227B00D24
:10151000A11D621F739FB00DA11D621F839FA00DAF
:10152000611D221F749F3327A00D611D231F849FFF
:10153000600D211D822F762F6A2F11249F57504056
:101540009AF0F1F088234AF0EE0FFF1FBB1F661FD1
:10155000771F881F91505040A9F79E3F510580F09A
:101560000C94040A0C944F0A5F3FE4F3983ED4F3C2
:10157000869577956795B795F795E7959F5FC1F73E
:10158000FE2B880F911D9695879597F908950E94D7
:10159000E009880B990B089597FB072E16F4009429
:1015A00007D077FD09D00E94330B07FC05D03EF42D
:1015B000909581959F4F0895709561957F4F0895FF
:1015C000A1E21A2EAA1BBB1BFD010DC0AA1FBB1F47
:1015D000EE1FFF1FA217B307E407F50720F0A21BB9
:1015E000B30BE40BF50B661F771F881F991F1A9426
:1015F00069F760957095809590959B01AC01BD0150
:10160000CF010895052E97FB1EF400940E94190B3C
:1016100057FD07D00E94E00A07FC03D04EF40C945B
:10162000190B50954095309521953F4F4F4F5F4F87
:10163000089590958095709561957F4F8F4F9F4F3E
:1016400008950E944D0BB7FF0895821B930B0895D8
:101650000E944D0BA59F900DB49F900DA49F800DEF
:10166000911D11240895AA1BBB1B51E107C0AA1F9D
:10167000BB1FA617B70710F0A61BB70B881F991F33
:101680005A95A9F780959095BC01CD010895EE0F6C
:10169000FF1F0590F491E02D0994A29FB001B39F24
:1016A000C001A39F700D811D1124911DB29F700D6B
:0C16B000811D1124911D0895F894FFCFB6
:1016BC00FF000000002D018D00BA007A01EB00C97B
:1016CC0000DD000601C400C400DC00C4000000F70B
:1016DC0000060104000800080004000400040004D3
:1016EC000004004563686563206465206C61206DAF
:1016FC006573757265000D0A0044697374616E63DD
:10170C00653A20006E616E00696E66006F76660049
:04171C0020636D00D9
:107E0000112484B714BE81FFF0D085E080938100F7
:107E100082E08093C00088E18093C10086E0809377
:107E2000C20080E18093C4008EE0C9D0259A86E02C
:107E300020E33CEF91E0309385002093840096BBD3
:107E4000B09BFECF1D9AA8958150A9F7CC24DD24C4
:107E500088248394B5E0AB2EA1E19A2EF3E0BF2EE7
:107E6000A2D0813461F49FD0082FAFD0023811F036
:107E7000013811F484E001C083E08DD089C08234E0
:107E800011F484E103C0853419F485E0A6D080C0E4
:107E9000853579F488D0E82EFF2485D0082F10E0AE
:107EA000102F00270E291F29000F111F8ED06801E7
:107EB0006FC0863521F484E090D080E0DECF843638
:107EC00009F040C070D06FD0082F6DD080E0C81688
:107ED00080E7D80618F4F601B7BEE895C0E0D1E017
:107EE00062D089930C17E1F7F0E0CF16F0E7DF06D8
:107EF00018F0F601B7BEE89568D007B600FCFDCFD4
:107F0000A601A0E0B1E02C9130E011968C91119780
:107F100090E0982F8827822B932B1296FA010C0160
:107F200087BEE89511244E5F5F4FF1E0A038BF0790
:107F300051F7F601A7BEE89507B600FCFDCF97BE46
:107F4000E89526C08437B1F42ED02DD0F82E2BD052
:107F50003CD0F601EF2C8F010F5F1F4F84911BD097
:107F6000EA94F801C1F70894C11CD11CFA94CF0C13
:107F7000D11C0EC0853739F428D08EE10CD085E9AC
:107F80000AD08FE07ACF813511F488E018D01DD067
:107F900080E101D065CF982F8091C00085FFFCCF94
:107FA0009093C60008958091C00087FFFCCF809118
:107FB000C00084FD01C0A8958091C6000895E0E648
:107FC000F0E098E1908380830895EDDF803219F02E
:107FD00088E0F5DFFFCF84E1DECF1F93182FE3DFCA
:107FE0001150E9F7F2DF1F91089580E0E8DFEE27F6
:047FF000FF270994CA
:027FFE00040479
:0400000300007E007B
:00000001FF
